{"contracts/DomainRegistryV2.sol":{"DomainRegistryV2":{"abi":[{"inputs":[],"name":"DomainIsAlreadyRegistered","type":"error"},{"inputs":[],"name":"DomainWasNotRegistered","type":"error"},{"inputs":[],"name":"InvalidInitialization","type":"error"},{"inputs":[],"name":"NotInitializing","type":"error"},{"inputs":[],"name":"NothingToWithdraw","type":"error"},{"inputs":[{"internalType":"address","name":"owner","type":"address"}],"name":"OwnableInvalidOwner","type":"error"},{"inputs":[{"internalType":"address","name":"account","type":"address"}],"name":"OwnableUnauthorizedAccount","type":"error"},{"inputs":[{"internalType":"string","name":"parentDomainName","type":"string"}],"name":"ParentDomainNameWasNotFound","type":"error"},{"inputs":[{"internalType":"string","name":"message","type":"string"}],"name":"PaymentForRegisteringDomainFailed","type":"error"},{"inputs":[],"name":"WithdrawFailed","type":"error"},{"inputs":[{"internalType":"string","name":"domainName","type":"string"}],"name":"WithdrawRewardFailed","type":"error"},{"anonymous":false,"inputs":[{"indexed":true,"internalType":"string","name":"indexedName","type":"string"},{"indexed":true,"internalType":"address","name":"indexedDomainHolder","type":"address"},{"indexed":false,"internalType":"string","name":"name","type":"string"},{"indexed":false,"internalType":"address","name":"domainHolder","type":"address"},{"indexed":false,"internalType":"uint256","name":"createdDate","type":"uint256"}],"name":"DomainRegistered","type":"event"},{"anonymous":false,"inputs":[{"indexed":false,"internalType":"uint64","name":"version","type":"uint64"}],"name":"Initialized","type":"event"},{"anonymous":false,"inputs":[{"indexed":true,"internalType":"address","name":"previousOwner","type":"address"},{"indexed":true,"internalType":"address","name":"newOwner","type":"address"}],"name":"OwnershipTransferred","type":"event"},{"anonymous":false,"inputs":[{"indexed":true,"internalType":"string","name":"indexedDomainName","type":"string"},{"indexed":true,"internalType":"address","name":"indexedDomainHolder","type":"address"},{"indexed":false,"internalType":"string","name":"domainName","type":"string"},{"indexed":false,"internalType":"address","name":"domainHolder","type":"address"},{"indexed":false,"internalType":"uint256","name":"rewardValue","type":"uint256"},{"indexed":false,"internalType":"uint256","name":"rewardBalance","type":"uint256"}],"name":"RewardApplied","type":"event"},{"anonymous":false,"inputs":[{"indexed":true,"internalType":"string","name":"indexedDomainName","type":"string"},{"indexed":true,"internalType":"address","name":"indexedDomainHolder","type":"address"},{"indexed":false,"internalType":"string","name":"domainName","type":"string"},{"indexed":false,"internalType":"address","name":"domainHolder","type":"address"},{"indexed":false,"internalType":"uint256","name":"withdrawValue","type":"uint256"}],"name":"RewardWithdrawed","type":"event"},{"stateMutability":"payable","type":"fallback"},{"inputs":[{"internalType":"uint256","name":"toValue","type":"uint256"}],"name":"changeDomainHolderReward","outputs":[],"stateMutability":"nonpayable","type":"function"},{"inputs":[{"internalType":"uint256","name":"toValue","type":"uint256"}],"name":"changeRegistrationPrice","outputs":[],"stateMutability":"nonpayable","type":"function"},{"inputs":[],"name":"domainHolderReward","outputs":[{"internalType":"uint256","name":"","type":"uint256"}],"stateMutability":"view","type":"function"},{"inputs":[{"internalType":"string","name":"domainName","type":"string"}],"name":"findDomainHolderBy","outputs":[{"internalType":"address","name":"","type":"address"}],"stateMutability":"view","type":"function"},{"inputs":[{"internalType":"string","name":"domainName","type":"string"}],"name":"getDomainRewardBalance","outputs":[{"internalType":"uint256","name":"","type":"uint256"}],"stateMutability":"view","type":"function"},{"inputs":[],"name":"getTotalRewardBalance","outputs":[{"internalType":"uint256","name":"","type":"uint256"}],"stateMutability":"view","type":"function"},{"inputs":[{"internalType":"address","name":"owner_","type":"address"},{"internalType":"uint256","name":"registrationPrice_","type":"uint256"}],"name":"initialize","outputs":[],"stateMutability":"nonpayable","type":"function"},{"inputs":[{"internalType":"string","name":"domainName","type":"string"}],"name":"isDomainRegistered","outputs":[{"internalType":"bool","name":"","type":"bool"}],"stateMutability":"view","type":"function"},{"inputs":[],"name":"owner","outputs":[{"internalType":"address","name":"","type":"address"}],"stateMutability":"view","type":"function"},{"inputs":[{"internalType":"string","name":"domainName","type":"string"}],"name":"registerDomain","outputs":[],"stateMutability":"payable","type":"function"},{"inputs":[],"name":"registrationPrice","outputs":[{"internalType":"uint256","name":"","type":"uint256"}],"stateMutability":"view","type":"function"},{"inputs":[],"name":"renounceOwnership","outputs":[],"stateMutability":"nonpayable","type":"function"},{"inputs":[{"internalType":"address","name":"newOwner","type":"address"}],"name":"transferOwnership","outputs":[],"stateMutability":"nonpayable","type":"function"},{"inputs":[],"name":"withdraw","outputs":[],"stateMutability":"nonpayable","type":"function"},{"inputs":[{"internalType":"string","name":"domainName","type":"string"}],"name":"withdrawRewardFor","outputs":[],"stateMutability":"nonpayable","type":"function"},{"stateMutability":"payable","type":"receive"}],"evm":{"bytecode":{"linkReferences":{},"object":"608060405234801561001057600080fd5b506115e3806100206000396000f3fe6080604052600436106100e05760003560e01c80638da5cb5b11610084578063e106f87611610056578063e106f8761461027c578063ef01440c1461029c578063f2fde38b146102bc578063f5162639146102dc57005b80638da5cb5b14610214578063a5cad08a14610229578063b7a727a21461023c578063cd6dc6871461025c57005b80632bf6bca8116100bd5780632bf6bca81461017e5780633ccfd60b146101b257806367ce3a51146101c7578063715018a6146101ff57005b80631c452781146100e9578063216586581461011e578063217079511461014a57005b366100e757005b005b3480156100f557600080fd5b50610109610104366004611203565b6102fc565b60405190151581526020015b60405180910390f35b34801561012a57600080fd5b5060008051602061158e833981519152545b604051908152602001610115565b34801561015657600080fd5b507f95137cbd5b999a2a07f15c64ecb41442a54817dd1810d04f8ff3a7e325fb51035461013c565b34801561018a57600080fd5b507f95137cbd5b999a2a07f15c64ecb41442a54817dd1810d04f8ff3a7e325fb51025461013c565b3480156101be57600080fd5b506100e7610340565b3480156101d357600080fd5b506101e76101e2366004611203565b6103cb565b6040516001600160a01b039091168152602001610115565b34801561020b57600080fd5b506100e7610445565b34801561022057600080fd5b506101e7610459565b6100e7610237366004611203565b610487565b34801561024857600080fd5b506100e7610257366004611203565b61066f565b34801561026857600080fd5b506100e76102773660046112d0565b6107c6565b34801561028857600080fd5b506100e76102973660046112fa565b6108e8565b3480156102a857600080fd5b5061013c6102b7366004611203565b610914565b3480156102c857600080fd5b506100e76102d7366004611313565b610946565b3480156102e857600080fd5b506100e76102f73660046112fa565b610981565b60008060008051602061158e8339815191526001018360405161031f9190611359565b908152604051908190036020019020546001600160a01b0316141592915050565b61034861099b565b7f95137cbd5b999a2a07f15c64ecb41442a54817dd1810d04f8ff3a7e325fb510354600090610377904761138b565b90508060000361039a57604051630686827b60e51b815260040160405180910390fd5b6103ab6103a5610459565b826109cd565b6103c857604051631d42c86760e21b815260040160405180910390fd5b50565b6000816103d7816102fc565b6103f4576040516334b2814b60e11b815260040160405180910390fd5b6040517f95137cbd5b999a2a07f15c64ecb41442a54817dd1810d04f8ff3a7e325fb510190610424908590611359565b908152604051908190036020019020546001600160a01b0316915050919050565b61044d61099b565b6104576000610a2b565b565b7f9016d09d72d40fdae2fd8ceac6b6234c7706214fd39c1cd1e609a0528c199300546001600160a01b031690565b80610491816102fc565b156104af57604051634669493d60e01b815260040160405180910390fd5b60008051602061158e833981519152805434101561052557604051637597158360e01b815260206004820152602760248201527f4e6f7420656e6f75676820657468657220746f20726567697374657220746865604482015266103237b6b0b4b760c91b60648201526084015b60405180910390fd5b61052f8382610a9c565b3381600101846040516105429190611359565b90815260405190819003602001812080546001600160a01b03939093166001600160a01b031990931692909217909155339061057f908590611359565b60405180910390207fd1f2ec21ca6ca1afd00511d7822f3c5c0885e70a3bf9b880ea7147aba2d4448a8533426040516105ba939291906113ca565b60405180910390a3805434111561066a5780546000906105da903461138b565b90506105e633826109cd565b61066857604051637597158360e01b815260206004820152604660248201527f546865206f7665727061796d656e74207761732064657465637465642c20627560448201527f7420726566756e64696e67207468652065786365737320776173206e6f7420736064820152651d58d8d9595960d21b608482015260a40161051c565b505b505050565b61067761099b565b80610681816102fc565b61069e576040516334b2814b60e11b815260040160405180910390fd5b60405160008051602061158e833981519152906000907f95137cbd5b999a2a07f15c64ecb41442a54817dd1810d04f8ff3a7e325fb5101906106e1908690611359565b908152604051908190036020019020546001600160a01b03169050600061070b6002840186610c33565b90508060000361072e57604051630686827b60e51b815260040160405180910390fd5b61073b6002840186610c5e565b816001600160a01b0316856040516107539190611359565b60405180910390207f239c5848970b687a239320aed3a6f8302235ee4ba445faa864ee610ef3a9af7787858560405161078e939291906113ca565b60405180910390a36107a082826109cd565b6107bf578460405163d15c220d60e01b815260040161051c91906113f8565b5050505050565b7ff0c57e16840df040f15088dc2f81fe391c3923bec73e23a9662efc9c229c6a008054600160401b810460ff16159067ffffffffffffffff1660008115801561080c5750825b905060008267ffffffffffffffff1660011480156108295750303b155b905081158015610837575080155b156108555760405163f92ee8a960e01b815260040160405180910390fd5b845467ffffffffffffffff19166001178555831561087f57845460ff60401b1916600160401b1785555b61088887610cc1565b8560008051602061158e8339815191525583156108df57845460ff60401b19168555604051600181527fc7f505b2f371ae2175ee4913f4499e1f2633a7b5936321eed1cdaeb6115181d29060200160405180910390a15b50505050505050565b6108f061099b565b7f95137cbd5b999a2a07f15c64ecb41442a54817dd1810d04f8ff3a7e325fb510255565b60006109407f95137cbd5b999a2a07f15c64ecb41442a54817dd1810d04f8ff3a7e325fb510283610c33565b92915050565b61094e61099b565b6001600160a01b03811661097857604051631e4fbdf760e01b81526000600482015260240161051c565b6103c881610a2b565b61098961099b565b60008051602061158e83398151915255565b336109a4610459565b6001600160a01b0316146104575760405163118cdaa760e01b815233600482015260240161051c565b600080836001600160a01b03168360405160006040518083038185875af1925050503d8060008114610a1b576040519150601f19603f3d011682016040523d82523d6000602084013e610a20565b606091505b509095945050505050565b7f9016d09d72d40fdae2fd8ceac6b6234c7706214fd39c1cd1e609a0528c19930080546001600160a01b031981166001600160a01b03848116918217845560405192169182907f8be0079c531659141344cd1fd0a4f28419497f9722a3daafe3b4186f6b6457e090600090a3505050565b6000610acf8360408051808201825260008082526020918201528151808301909252825182529182019181019190915290565b60408051808201825260018152601760f91b602080830191825283518085018552600080825290820181905284518086019095529251845283015291925090610b188383610cd2565b90506001811015610b2a575050505050565b604080516020810190915260008082525b828110156108df57610b55610b508686610d73565b610d92565b9150610b60826102fc565b610b7f57816040516378f3e9ef60e11b815260040161051c91906113f8565b6000610b8e6002880184610dfb565b905060008760010184604051610ba49190611359565b908152604051908190036020018120546001600160a01b031691508190610bcc908690611359565b6040519081900390207f09c4a7bd711082ff4ba6869f6acc3fc39f6854a2097d9d1f8b6c23f281a0f6f1868486610c0660028f0184610c33565b604051610c16949392919061140b565b60405180910390a350508080610c2b90611443565b915050610b3b565b60008260020182604051610c479190611359565b908152602001604051809103902054905092915050565b8160020181604051610c709190611359565b908152602001604051809103902054826001016000828254610c92919061138b565b9250508190555060008260020182604051610cad9190611359565b908152604051908190036020019020555050565b610cc9610e59565b6103c881610ea2565b6000808260000151610cf68560000151866020015186600001518760200151610eaa565b610d00919061145c565b90505b83516020850151610d14919061145c565b8111610d6c5781610d2481611443565b9250508260000151610d5b856020015183610d3f919061138b565b8651610d4b919061138b565b8386600001518760200151610eaa565b610d65919061145c565b9050610d03565b5092915050565b6040805180820190915260008082526020820152610d6c838383610fcc565b60606000826000015167ffffffffffffffff811115610db357610db36111ed565b6040519080825280601f01601f191660200182016040528015610ddd576020820181803683370190505b5090506000602082019050610d6c8185602001518660000151611062565b600082600001548360020183604051610e149190611359565b90815260200160405180910390206000828254610e31919061145c565b90915550508254600184018054600090610e4c90849061145c565b9091555050915492915050565b7ff0c57e16840df040f15088dc2f81fe391c3923bec73e23a9662efc9c229c6a0054600160401b900460ff1661045757604051631afcd79f60e31b815260040160405180910390fd5b61094e610e59565b60008381868511610fb55760208511610f645760008515610ef6576001610ed287602061138b565b610edd90600861146f565b610ee890600261156a565b610ef2919061138b565b1990505b84518116600087610f078b8b61145c565b610f11919061138b565b855190915083165b828114610f5657818610610f3e57610f318b8b61145c565b9650505050505050610fc4565b85610f4881611443565b965050838651169050610f19565b859650505050505050610fc4565b508383206000905b610f76868961138b565b8211610fb357858320808203610f925783945050505050610fc4565b610f9d60018561145c565b9350508180610fab90611443565b925050610f6c565b505b610fbf878761145c565b925050505b949350505050565b60408051808201909152600080825260208201526000610ffe85600001518660200151866000015187602001516110dc565b6020808501829052860151909150611016908261138b565b8551611022919061138b565b8352602085015181036110385760008552611059565b83518351611046919061145c565b8551869061105590839061138b565b9052505b50909392505050565b6020811061109a578151835261107960208461145c565b925061108660208361145c565b915061109360208261138b565b9050611062565b60001981156110c95760016110b083602061138b565b6110bc9061010061156a565b6110c6919061138b565b90505b9151835183169219169190911790915250565b6000808584116111e3576020841161118f576000841561112757600161110386602061138b565b61110e90600861146f565b61111990600261156a565b611123919061138b565b1990505b8351811685611136898961145c565b611140919061138b565b805190935082165b81811461117a578784116111625787945050505050610fc4565b8361116c81611576565b945050828451169050611148565b611184878561145c565b945050505050610fc4565b83832061119c858861138b565b6111a6908761145c565b91505b8582106111e1578482208082036111ce576111c4868461145c565b9350505050610fc4565b6111d960018461138b565b9250506111a9565b505b5092949350505050565b634e487b7160e01b600052604160045260246000fd5b60006020828403121561121557600080fd5b813567ffffffffffffffff8082111561122d57600080fd5b818401915084601f83011261124157600080fd5b813581811115611253576112536111ed565b604051601f8201601f19908116603f0116810190838211818310171561127b5761127b6111ed565b8160405282815287602084870101111561129457600080fd5b826020860160208301376000928101602001929092525095945050505050565b80356001600160a01b03811681146112cb57600080fd5b919050565b600080604083850312156112e357600080fd5b6112ec836112b4565b946020939093013593505050565b60006020828403121561130c57600080fd5b5035919050565b60006020828403121561132557600080fd5b61132e826112b4565b9392505050565b60005b83811015611350578181015183820152602001611338565b50506000910152565b6000825161136b818460208701611335565b9190910192915050565b634e487b7160e01b600052601160045260246000fd5b8181038181111561094057610940611375565b600081518084526113b6816020860160208601611335565b601f01601f19169290920160200192915050565b6060815260006113dd606083018661139e565b6001600160a01b039490941660208301525060400152919050565b60208152600061132e602083018461139e565b60808152600061141e608083018761139e565b6001600160a01b03959095166020830152506040810192909252606090910152919050565b60006001820161145557611455611375565b5060010190565b8082018082111561094057610940611375565b808202811582820484141761094057610940611375565b600181815b808511156114c15781600019048211156114a7576114a7611375565b808516156114b457918102915b93841c939080029061148b565b509250929050565b6000826114d857506001610940565b816114e557506000610940565b81600181146114fb576002811461150557611521565b6001915050610940565b60ff84111561151657611516611375565b50506001821b610940565b5060208310610133831016604e8410600b8410161715611544575081810a610940565b61154e8383611486565b806000190482111561156257611562611375565b029392505050565b600061132e83836114c9565b60008161158557611585611375565b50600019019056fe95137cbd5b999a2a07f15c64ecb41442a54817dd1810d04f8ff3a7e325fb5100a26469706673582212203728c6955df84ea455bf92e0b562f686bd2633a30e24f5eea764e7f7f1aa955c64736f6c63430008140033","opcodes":"PUSH1 0x80 PUSH1 0x40 MSTORE CALLVALUE DUP1 ISZERO PUSH2 0x10 JUMPI PUSH1 0x0 DUP1 REVERT JUMPDEST POP PUSH2 0x15E3 DUP1 PUSH2 0x20 PUSH1 0x0 CODECOPY PUSH1 0x0 RETURN INVALID PUSH1 0x80 PUSH1 0x40 MSTORE PUSH1 0x4 CALLDATASIZE LT PUSH2 0xE0 JUMPI PUSH1 0x0 CALLDATALOAD PUSH1 0xE0 SHR DUP1 PUSH4 0x8DA5CB5B GT PUSH2 0x84 JUMPI DUP1 PUSH4 0xE106F876 GT PUSH2 0x56 JUMPI DUP1 PUSH4 0xE106F876 EQ PUSH2 0x27C JUMPI DUP1 PUSH4 0xEF01440C EQ PUSH2 0x29C JUMPI DUP1 PUSH4 0xF2FDE38B EQ PUSH2 0x2BC JUMPI DUP1 PUSH4 0xF5162639 EQ PUSH2 0x2DC JUMPI STOP JUMPDEST DUP1 PUSH4 0x8DA5CB5B EQ PUSH2 0x214 JUMPI DUP1 PUSH4 0xA5CAD08A EQ PUSH2 0x229 JUMPI DUP1 PUSH4 0xB7A727A2 EQ PUSH2 0x23C JUMPI DUP1 PUSH4 0xCD6DC687 EQ PUSH2 0x25C JUMPI STOP JUMPDEST DUP1 PUSH4 0x2BF6BCA8 GT PUSH2 0xBD JUMPI DUP1 PUSH4 0x2BF6BCA8 EQ PUSH2 0x17E JUMPI DUP1 PUSH4 0x3CCFD60B EQ PUSH2 0x1B2 JUMPI DUP1 PUSH4 0x67CE3A51 EQ PUSH2 0x1C7 JUMPI DUP1 PUSH4 0x715018A6 EQ PUSH2 0x1FF JUMPI STOP JUMPDEST DUP1 PUSH4 0x1C452781 EQ PUSH2 0xE9 JUMPI DUP1 PUSH4 0x21658658 EQ PUSH2 0x11E JUMPI DUP1 PUSH4 0x21707951 EQ PUSH2 0x14A JUMPI STOP JUMPDEST CALLDATASIZE PUSH2 0xE7 JUMPI STOP JUMPDEST STOP JUMPDEST CALLVALUE DUP1 ISZERO PUSH2 0xF5 JUMPI PUSH1 0x0 DUP1 REVERT JUMPDEST POP PUSH2 0x109 PUSH2 0x104 CALLDATASIZE PUSH1 0x4 PUSH2 0x1203 JUMP JUMPDEST PUSH2 0x2FC JUMP JUMPDEST PUSH1 0x40 MLOAD SWAP1 ISZERO ISZERO DUP2 MSTORE PUSH1 0x20 ADD JUMPDEST PUSH1 0x40 MLOAD DUP1 SWAP2 SUB SWAP1 RETURN JUMPDEST CALLVALUE DUP1 ISZERO PUSH2 0x12A JUMPI PUSH1 0x0 DUP1 REVERT JUMPDEST POP PUSH1 0x0 DUP1 MLOAD PUSH1 0x20 PUSH2 0x158E DUP4 CODECOPY DUP2 MLOAD SWAP2 MSTORE SLOAD JUMPDEST PUSH1 0x40 MLOAD SWAP1 DUP2 MSTORE PUSH1 0x20 ADD PUSH2 0x115 JUMP JUMPDEST CALLVALUE DUP1 ISZERO PUSH2 0x156 JUMPI PUSH1 0x0 DUP1 REVERT JUMPDEST POP PUSH32 0x95137CBD5B999A2A07F15C64ECB41442A54817DD1810D04F8FF3A7E325FB5103 SLOAD PUSH2 0x13C JUMP JUMPDEST CALLVALUE DUP1 ISZERO PUSH2 0x18A JUMPI PUSH1 0x0 DUP1 REVERT JUMPDEST POP PUSH32 0x95137CBD5B999A2A07F15C64ECB41442A54817DD1810D04F8FF3A7E325FB5102 SLOAD PUSH2 0x13C JUMP JUMPDEST CALLVALUE DUP1 ISZERO PUSH2 0x1BE JUMPI PUSH1 0x0 DUP1 REVERT JUMPDEST POP PUSH2 0xE7 PUSH2 0x340 JUMP JUMPDEST CALLVALUE DUP1 ISZERO PUSH2 0x1D3 JUMPI PUSH1 0x0 DUP1 REVERT JUMPDEST POP PUSH2 0x1E7 PUSH2 0x1E2 CALLDATASIZE PUSH1 0x4 PUSH2 0x1203 JUMP JUMPDEST PUSH2 0x3CB JUMP JUMPDEST PUSH1 0x40 MLOAD PUSH1 0x1 PUSH1 0x1 PUSH1 0xA0 SHL SUB SWAP1 SWAP2 AND DUP2 MSTORE PUSH1 0x20 ADD PUSH2 0x115 JUMP JUMPDEST CALLVALUE DUP1 ISZERO PUSH2 0x20B JUMPI PUSH1 0x0 DUP1 REVERT JUMPDEST POP PUSH2 0xE7 PUSH2 0x445 JUMP JUMPDEST CALLVALUE DUP1 ISZERO PUSH2 0x220 JUMPI PUSH1 0x0 DUP1 REVERT JUMPDEST POP PUSH2 0x1E7 PUSH2 0x459 JUMP JUMPDEST PUSH2 0xE7 PUSH2 0x237 CALLDATASIZE PUSH1 0x4 PUSH2 0x1203 JUMP JUMPDEST PUSH2 0x487 JUMP JUMPDEST CALLVALUE DUP1 ISZERO PUSH2 0x248 JUMPI PUSH1 0x0 DUP1 REVERT JUMPDEST POP PUSH2 0xE7 PUSH2 0x257 CALLDATASIZE PUSH1 0x4 PUSH2 0x1203 JUMP JUMPDEST PUSH2 0x66F JUMP JUMPDEST CALLVALUE DUP1 ISZERO PUSH2 0x268 JUMPI PUSH1 0x0 DUP1 REVERT JUMPDEST POP PUSH2 0xE7 PUSH2 0x277 CALLDATASIZE PUSH1 0x4 PUSH2 0x12D0 JUMP JUMPDEST PUSH2 0x7C6 JUMP JUMPDEST CALLVALUE DUP1 ISZERO PUSH2 0x288 JUMPI PUSH1 0x0 DUP1 REVERT JUMPDEST POP PUSH2 0xE7 PUSH2 0x297 CALLDATASIZE PUSH1 0x4 PUSH2 0x12FA JUMP JUMPDEST PUSH2 0x8E8 JUMP JUMPDEST CALLVALUE DUP1 ISZERO PUSH2 0x2A8 JUMPI PUSH1 0x0 DUP1 REVERT JUMPDEST POP PUSH2 0x13C PUSH2 0x2B7 CALLDATASIZE PUSH1 0x4 PUSH2 0x1203 JUMP JUMPDEST PUSH2 0x914 JUMP JUMPDEST CALLVALUE DUP1 ISZERO PUSH2 0x2C8 JUMPI PUSH1 0x0 DUP1 REVERT JUMPDEST POP PUSH2 0xE7 PUSH2 0x2D7 CALLDATASIZE PUSH1 0x4 PUSH2 0x1313 JUMP JUMPDEST PUSH2 0x946 JUMP JUMPDEST CALLVALUE DUP1 ISZERO PUSH2 0x2E8 JUMPI PUSH1 0x0 DUP1 REVERT JUMPDEST POP PUSH2 0xE7 PUSH2 0x2F7 CALLDATASIZE PUSH1 0x4 PUSH2 0x12FA JUMP JUMPDEST PUSH2 0x981 JUMP JUMPDEST PUSH1 0x0 DUP1 PUSH1 0x0 DUP1 MLOAD PUSH1 0x20 PUSH2 0x158E DUP4 CODECOPY DUP2 MLOAD SWAP2 MSTORE PUSH1 0x1 ADD DUP4 PUSH1 0x40 MLOAD PUSH2 0x31F SWAP2 SWAP1 PUSH2 0x1359 JUMP JUMPDEST SWAP1 DUP2 MSTORE PUSH1 0x40 MLOAD SWAP1 DUP2 SWAP1 SUB PUSH1 0x20 ADD SWAP1 KECCAK256 SLOAD PUSH1 0x1 PUSH1 0x1 PUSH1 0xA0 SHL SUB AND EQ ISZERO SWAP3 SWAP2 POP POP JUMP JUMPDEST PUSH2 0x348 PUSH2 0x99B JUMP JUMPDEST PUSH32 0x95137CBD5B999A2A07F15C64ECB41442A54817DD1810D04F8FF3A7E325FB5103 SLOAD PUSH1 0x0 SWAP1 PUSH2 0x377 SWAP1 SELFBALANCE PUSH2 0x138B JUMP JUMPDEST SWAP1 POP DUP1 PUSH1 0x0 SUB PUSH2 0x39A JUMPI PUSH1 0x40 MLOAD PUSH4 0x686827B PUSH1 0xE5 SHL DUP2 MSTORE PUSH1 0x4 ADD PUSH1 0x40 MLOAD DUP1 SWAP2 SUB SWAP1 REVERT JUMPDEST PUSH2 0x3AB PUSH2 0x3A5 PUSH2 0x459 JUMP JUMPDEST DUP3 PUSH2 0x9CD JUMP JUMPDEST PUSH2 0x3C8 JUMPI PUSH1 0x40 MLOAD PUSH4 0x1D42C867 PUSH1 0xE2 SHL DUP2 MSTORE PUSH1 0x4 ADD PUSH1 0x40 MLOAD DUP1 SWAP2 SUB SWAP1 REVERT JUMPDEST POP JUMP JUMPDEST PUSH1 0x0 DUP2 PUSH2 0x3D7 DUP2 PUSH2 0x2FC JUMP JUMPDEST PUSH2 0x3F4 JUMPI PUSH1 0x40 MLOAD PUSH4 0x34B2814B PUSH1 0xE1 SHL DUP2 MSTORE PUSH1 0x4 ADD PUSH1 0x40 MLOAD DUP1 SWAP2 SUB SWAP1 REVERT JUMPDEST PUSH1 0x40 MLOAD PUSH32 0x95137CBD5B999A2A07F15C64ECB41442A54817DD1810D04F8FF3A7E325FB5101 SWAP1 PUSH2 0x424 SWAP1 DUP6 SWAP1 PUSH2 0x1359 JUMP JUMPDEST SWAP1 DUP2 MSTORE PUSH1 0x40 MLOAD SWAP1 DUP2 SWAP1 SUB PUSH1 0x20 ADD SWAP1 KECCAK256 SLOAD PUSH1 0x1 PUSH1 0x1 PUSH1 0xA0 SHL SUB AND SWAP2 POP POP SWAP2 SWAP1 POP JUMP JUMPDEST PUSH2 0x44D PUSH2 0x99B JUMP JUMPDEST PUSH2 0x457 PUSH1 0x0 PUSH2 0xA2B JUMP JUMPDEST JUMP JUMPDEST PUSH32 0x9016D09D72D40FDAE2FD8CEAC6B6234C7706214FD39C1CD1E609A0528C199300 SLOAD PUSH1 0x1 PUSH1 0x1 PUSH1 0xA0 SHL SUB AND SWAP1 JUMP JUMPDEST DUP1 PUSH2 0x491 DUP2 PUSH2 0x2FC JUMP JUMPDEST ISZERO PUSH2 0x4AF JUMPI PUSH1 0x40 MLOAD PUSH4 0x4669493D PUSH1 0xE0 SHL DUP2 MSTORE PUSH1 0x4 ADD PUSH1 0x40 MLOAD DUP1 SWAP2 SUB SWAP1 REVERT JUMPDEST PUSH1 0x0 DUP1 MLOAD PUSH1 0x20 PUSH2 0x158E DUP4 CODECOPY DUP2 MLOAD SWAP2 MSTORE DUP1 SLOAD CALLVALUE LT ISZERO PUSH2 0x525 JUMPI PUSH1 0x40 MLOAD PUSH4 0x75971583 PUSH1 0xE0 SHL DUP2 MSTORE PUSH1 0x20 PUSH1 0x4 DUP3 ADD MSTORE PUSH1 0x27 PUSH1 0x24 DUP3 ADD MSTORE PUSH32 0x4E6F7420656E6F75676820657468657220746F20726567697374657220746865 PUSH1 0x44 DUP3 ADD MSTORE PUSH7 0x103237B6B0B4B7 PUSH1 0xC9 SHL PUSH1 0x64 DUP3 ADD MSTORE PUSH1 0x84 ADD JUMPDEST PUSH1 0x40 MLOAD DUP1 SWAP2 SUB SWAP1 REVERT JUMPDEST PUSH2 0x52F DUP4 DUP3 PUSH2 0xA9C JUMP JUMPDEST CALLER DUP2 PUSH1 0x1 ADD DUP5 PUSH1 0x40 MLOAD PUSH2 0x542 SWAP2 SWAP1 PUSH2 0x1359 JUMP JUMPDEST SWAP1 DUP2 MSTORE PUSH1 0x40 MLOAD SWAP1 DUP2 SWAP1 SUB PUSH1 0x20 ADD DUP2 KECCAK256 DUP1 SLOAD PUSH1 0x1 PUSH1 0x1 PUSH1 0xA0 SHL SUB SWAP4 SWAP1 SWAP4 AND PUSH1 0x1 PUSH1 0x1 PUSH1 0xA0 SHL SUB NOT SWAP1 SWAP4 AND SWAP3 SWAP1 SWAP3 OR SWAP1 SWAP2 SSTORE CALLER SWAP1 PUSH2 0x57F SWAP1 DUP6 SWAP1 PUSH2 0x1359 JUMP JUMPDEST PUSH1 0x40 MLOAD DUP1 SWAP2 SUB SWAP1 KECCAK256 PUSH32 0xD1F2EC21CA6CA1AFD00511D7822F3C5C0885E70A3BF9B880EA7147ABA2D4448A DUP6 CALLER TIMESTAMP PUSH1 0x40 MLOAD PUSH2 0x5BA SWAP4 SWAP3 SWAP2 SWAP1 PUSH2 0x13CA JUMP JUMPDEST PUSH1 0x40 MLOAD DUP1 SWAP2 SUB SWAP1 LOG3 DUP1 SLOAD CALLVALUE GT ISZERO PUSH2 0x66A JUMPI DUP1 SLOAD PUSH1 0x0 SWAP1 PUSH2 0x5DA SWAP1 CALLVALUE PUSH2 0x138B JUMP JUMPDEST SWAP1 POP PUSH2 0x5E6 CALLER DUP3 PUSH2 0x9CD JUMP JUMPDEST PUSH2 0x668 JUMPI PUSH1 0x40 MLOAD PUSH4 0x75971583 PUSH1 0xE0 SHL DUP2 MSTORE PUSH1 0x20 PUSH1 0x4 DUP3 ADD MSTORE PUSH1 0x46 PUSH1 0x24 DUP3 ADD MSTORE PUSH32 0x546865206F7665727061796D656E74207761732064657465637465642C206275 PUSH1 0x44 DUP3 ADD MSTORE PUSH32 0x7420726566756E64696E67207468652065786365737320776173206E6F742073 PUSH1 0x64 DUP3 ADD MSTORE PUSH6 0x1D58D8D95959 PUSH1 0xD2 SHL PUSH1 0x84 DUP3 ADD MSTORE PUSH1 0xA4 ADD PUSH2 0x51C JUMP JUMPDEST POP JUMPDEST POP POP POP JUMP JUMPDEST PUSH2 0x677 PUSH2 0x99B JUMP JUMPDEST DUP1 PUSH2 0x681 DUP2 PUSH2 0x2FC JUMP JUMPDEST PUSH2 0x69E JUMPI PUSH1 0x40 MLOAD PUSH4 0x34B2814B PUSH1 0xE1 SHL DUP2 MSTORE PUSH1 0x4 ADD PUSH1 0x40 MLOAD DUP1 SWAP2 SUB SWAP1 REVERT JUMPDEST PUSH1 0x40 MLOAD PUSH1 0x0 DUP1 MLOAD PUSH1 0x20 PUSH2 0x158E DUP4 CODECOPY DUP2 MLOAD SWAP2 MSTORE SWAP1 PUSH1 0x0 SWAP1 PUSH32 0x95137CBD5B999A2A07F15C64ECB41442A54817DD1810D04F8FF3A7E325FB5101 SWAP1 PUSH2 0x6E1 SWAP1 DUP7 SWAP1 PUSH2 0x1359 JUMP JUMPDEST SWAP1 DUP2 MSTORE PUSH1 0x40 MLOAD SWAP1 DUP2 SWAP1 SUB PUSH1 0x20 ADD SWAP1 KECCAK256 SLOAD PUSH1 0x1 PUSH1 0x1 PUSH1 0xA0 SHL SUB AND SWAP1 POP PUSH1 0x0 PUSH2 0x70B PUSH1 0x2 DUP5 ADD DUP7 PUSH2 0xC33 JUMP JUMPDEST SWAP1 POP DUP1 PUSH1 0x0 SUB PUSH2 0x72E JUMPI PUSH1 0x40 MLOAD PUSH4 0x686827B PUSH1 0xE5 SHL DUP2 MSTORE PUSH1 0x4 ADD PUSH1 0x40 MLOAD DUP1 SWAP2 SUB SWAP1 REVERT JUMPDEST PUSH2 0x73B PUSH1 0x2 DUP5 ADD DUP7 PUSH2 0xC5E JUMP JUMPDEST DUP2 PUSH1 0x1 PUSH1 0x1 PUSH1 0xA0 SHL SUB AND DUP6 PUSH1 0x40 MLOAD PUSH2 0x753 SWAP2 SWAP1 PUSH2 0x1359 JUMP JUMPDEST PUSH1 0x40 MLOAD DUP1 SWAP2 SUB SWAP1 KECCAK256 PUSH32 0x239C5848970B687A239320AED3A6F8302235EE4BA445FAA864EE610EF3A9AF77 DUP8 DUP6 DUP6 PUSH1 0x40 MLOAD PUSH2 0x78E SWAP4 SWAP3 SWAP2 SWAP1 PUSH2 0x13CA JUMP JUMPDEST PUSH1 0x40 MLOAD DUP1 SWAP2 SUB SWAP1 LOG3 PUSH2 0x7A0 DUP3 DUP3 PUSH2 0x9CD JUMP JUMPDEST PUSH2 0x7BF JUMPI DUP5 PUSH1 0x40 MLOAD PUSH4 0xD15C220D PUSH1 0xE0 SHL DUP2 MSTORE PUSH1 0x4 ADD PUSH2 0x51C SWAP2 SWAP1 PUSH2 0x13F8 JUMP JUMPDEST POP POP POP POP POP JUMP JUMPDEST PUSH32 0xF0C57E16840DF040F15088DC2F81FE391C3923BEC73E23A9662EFC9C229C6A00 DUP1 SLOAD PUSH1 0x1 PUSH1 0x40 SHL DUP2 DIV PUSH1 0xFF AND ISZERO SWAP1 PUSH8 0xFFFFFFFFFFFFFFFF AND PUSH1 0x0 DUP2 ISZERO DUP1 ISZERO PUSH2 0x80C JUMPI POP DUP3 JUMPDEST SWAP1 POP PUSH1 0x0 DUP3 PUSH8 0xFFFFFFFFFFFFFFFF AND PUSH1 0x1 EQ DUP1 ISZERO PUSH2 0x829 JUMPI POP ADDRESS EXTCODESIZE ISZERO JUMPDEST SWAP1 POP DUP2 ISZERO DUP1 ISZERO PUSH2 0x837 JUMPI POP DUP1 ISZERO JUMPDEST ISZERO PUSH2 0x855 JUMPI PUSH1 0x40 MLOAD PUSH4 0xF92EE8A9 PUSH1 0xE0 SHL DUP2 MSTORE PUSH1 0x4 ADD PUSH1 0x40 MLOAD DUP1 SWAP2 SUB SWAP1 REVERT JUMPDEST DUP5 SLOAD PUSH8 0xFFFFFFFFFFFFFFFF NOT AND PUSH1 0x1 OR DUP6 SSTORE DUP4 ISZERO PUSH2 0x87F JUMPI DUP5 SLOAD PUSH1 0xFF PUSH1 0x40 SHL NOT AND PUSH1 0x1 PUSH1 0x40 SHL OR DUP6 SSTORE JUMPDEST PUSH2 0x888 DUP8 PUSH2 0xCC1 JUMP JUMPDEST DUP6 PUSH1 0x0 DUP1 MLOAD PUSH1 0x20 PUSH2 0x158E DUP4 CODECOPY DUP2 MLOAD SWAP2 MSTORE SSTORE DUP4 ISZERO PUSH2 0x8DF JUMPI DUP5 SLOAD PUSH1 0xFF PUSH1 0x40 SHL NOT AND DUP6 SSTORE PUSH1 0x40 MLOAD PUSH1 0x1 DUP2 MSTORE PUSH32 0xC7F505B2F371AE2175EE4913F4499E1F2633A7B5936321EED1CDAEB6115181D2 SWAP1 PUSH1 0x20 ADD PUSH1 0x40 MLOAD DUP1 SWAP2 SUB SWAP1 LOG1 JUMPDEST POP POP POP POP POP POP POP JUMP JUMPDEST PUSH2 0x8F0 PUSH2 0x99B JUMP JUMPDEST PUSH32 0x95137CBD5B999A2A07F15C64ECB41442A54817DD1810D04F8FF3A7E325FB5102 SSTORE JUMP JUMPDEST PUSH1 0x0 PUSH2 0x940 PUSH32 0x95137CBD5B999A2A07F15C64ECB41442A54817DD1810D04F8FF3A7E325FB5102 DUP4 PUSH2 0xC33 JUMP JUMPDEST SWAP3 SWAP2 POP POP JUMP JUMPDEST PUSH2 0x94E PUSH2 0x99B JUMP JUMPDEST PUSH1 0x1 PUSH1 0x1 PUSH1 0xA0 SHL SUB DUP2 AND PUSH2 0x978 JUMPI PUSH1 0x40 MLOAD PUSH4 0x1E4FBDF7 PUSH1 0xE0 SHL DUP2 MSTORE PUSH1 0x0 PUSH1 0x4 DUP3 ADD MSTORE PUSH1 0x24 ADD PUSH2 0x51C JUMP JUMPDEST PUSH2 0x3C8 DUP2 PUSH2 0xA2B JUMP JUMPDEST PUSH2 0x989 PUSH2 0x99B JUMP JUMPDEST PUSH1 0x0 DUP1 MLOAD PUSH1 0x20 PUSH2 0x158E DUP4 CODECOPY DUP2 MLOAD SWAP2 MSTORE SSTORE JUMP JUMPDEST CALLER PUSH2 0x9A4 PUSH2 0x459 JUMP JUMPDEST PUSH1 0x1 PUSH1 0x1 PUSH1 0xA0 SHL SUB AND EQ PUSH2 0x457 JUMPI PUSH1 0x40 MLOAD PUSH4 0x118CDAA7 PUSH1 0xE0 SHL DUP2 MSTORE CALLER PUSH1 0x4 DUP3 ADD MSTORE PUSH1 0x24 ADD PUSH2 0x51C JUMP JUMPDEST PUSH1 0x0 DUP1 DUP4 PUSH1 0x1 PUSH1 0x1 PUSH1 0xA0 SHL SUB AND DUP4 PUSH1 0x40 MLOAD PUSH1 0x0 PUSH1 0x40 MLOAD DUP1 DUP4 SUB DUP2 DUP6 DUP8 GAS CALL SWAP3 POP POP POP RETURNDATASIZE DUP1 PUSH1 0x0 DUP2 EQ PUSH2 0xA1B JUMPI PUSH1 0x40 MLOAD SWAP2 POP PUSH1 0x1F NOT PUSH1 0x3F RETURNDATASIZE ADD AND DUP3 ADD PUSH1 0x40 MSTORE RETURNDATASIZE DUP3 MSTORE RETURNDATASIZE PUSH1 0x0 PUSH1 0x20 DUP5 ADD RETURNDATACOPY PUSH2 0xA20 JUMP JUMPDEST PUSH1 0x60 SWAP2 POP JUMPDEST POP SWAP1 SWAP6 SWAP5 POP POP POP POP POP JUMP JUMPDEST PUSH32 0x9016D09D72D40FDAE2FD8CEAC6B6234C7706214FD39C1CD1E609A0528C199300 DUP1 SLOAD PUSH1 0x1 PUSH1 0x1 PUSH1 0xA0 SHL SUB NOT DUP2 AND PUSH1 0x1 PUSH1 0x1 PUSH1 0xA0 SHL SUB DUP5 DUP2 AND SWAP2 DUP3 OR DUP5 SSTORE PUSH1 0x40 MLOAD SWAP3 AND SWAP2 DUP3 SWAP1 PUSH32 0x8BE0079C531659141344CD1FD0A4F28419497F9722A3DAAFE3B4186F6B6457E0 SWAP1 PUSH1 0x0 SWAP1 LOG3 POP POP POP JUMP JUMPDEST PUSH1 0x0 PUSH2 0xACF DUP4 PUSH1 0x40 DUP1 MLOAD DUP1 DUP3 ADD DUP3 MSTORE PUSH1 0x0 DUP1 DUP3 MSTORE PUSH1 0x20 SWAP2 DUP3 ADD MSTORE DUP2 MLOAD DUP1 DUP4 ADD SWAP1 SWAP3 MSTORE DUP3 MLOAD DUP3 MSTORE SWAP2 DUP3 ADD SWAP2 DUP2 ADD SWAP2 SWAP1 SWAP2 MSTORE SWAP1 JUMP JUMPDEST PUSH1 0x40 DUP1 MLOAD DUP1 DUP3 ADD DUP3 MSTORE PUSH1 0x1 DUP2 MSTORE PUSH1 0x17 PUSH1 0xF9 SHL PUSH1 0x20 DUP1 DUP4 ADD SWAP2 DUP3 MSTORE DUP4 MLOAD DUP1 DUP6 ADD DUP6 MSTORE PUSH1 0x0 DUP1 DUP3 MSTORE SWAP1 DUP3 ADD DUP2 SWAP1 MSTORE DUP5 MLOAD DUP1 DUP7 ADD SWAP1 SWAP6 MSTORE SWAP3 MLOAD DUP5 MSTORE DUP4 ADD MSTORE SWAP2 SWAP3 POP SWAP1 PUSH2 0xB18 DUP4 DUP4 PUSH2 0xCD2 JUMP JUMPDEST SWAP1 POP PUSH1 0x1 DUP2 LT ISZERO PUSH2 0xB2A JUMPI POP POP POP POP POP JUMP JUMPDEST PUSH1 0x40 DUP1 MLOAD PUSH1 0x20 DUP2 ADD SWAP1 SWAP2 MSTORE PUSH1 0x0 DUP1 DUP3 MSTORE JUMPDEST DUP3 DUP2 LT ISZERO PUSH2 0x8DF JUMPI PUSH2 0xB55 PUSH2 0xB50 DUP7 DUP7 PUSH2 0xD73 JUMP JUMPDEST PUSH2 0xD92 JUMP JUMPDEST SWAP2 POP PUSH2 0xB60 DUP3 PUSH2 0x2FC JUMP JUMPDEST PUSH2 0xB7F JUMPI DUP2 PUSH1 0x40 MLOAD PUSH4 0x78F3E9EF PUSH1 0xE1 SHL DUP2 MSTORE PUSH1 0x4 ADD PUSH2 0x51C SWAP2 SWAP1 PUSH2 0x13F8 JUMP JUMPDEST PUSH1 0x0 PUSH2 0xB8E PUSH1 0x2 DUP9 ADD DUP5 PUSH2 0xDFB JUMP JUMPDEST SWAP1 POP PUSH1 0x0 DUP8 PUSH1 0x1 ADD DUP5 PUSH1 0x40 MLOAD PUSH2 0xBA4 SWAP2 SWAP1 PUSH2 0x1359 JUMP JUMPDEST SWAP1 DUP2 MSTORE PUSH1 0x40 MLOAD SWAP1 DUP2 SWAP1 SUB PUSH1 0x20 ADD DUP2 KECCAK256 SLOAD PUSH1 0x1 PUSH1 0x1 PUSH1 0xA0 SHL SUB AND SWAP2 POP DUP2 SWAP1 PUSH2 0xBCC SWAP1 DUP7 SWAP1 PUSH2 0x1359 JUMP JUMPDEST PUSH1 0x40 MLOAD SWAP1 DUP2 SWAP1 SUB SWAP1 KECCAK256 PUSH32 0x9C4A7BD711082FF4BA6869F6ACC3FC39F6854A2097D9D1F8B6C23F281A0F6F1 DUP7 DUP5 DUP7 PUSH2 0xC06 PUSH1 0x2 DUP16 ADD DUP5 PUSH2 0xC33 JUMP JUMPDEST PUSH1 0x40 MLOAD PUSH2 0xC16 SWAP5 SWAP4 SWAP3 SWAP2 SWAP1 PUSH2 0x140B JUMP JUMPDEST PUSH1 0x40 MLOAD DUP1 SWAP2 SUB SWAP1 LOG3 POP POP DUP1 DUP1 PUSH2 0xC2B SWAP1 PUSH2 0x1443 JUMP JUMPDEST SWAP2 POP POP PUSH2 0xB3B JUMP JUMPDEST PUSH1 0x0 DUP3 PUSH1 0x2 ADD DUP3 PUSH1 0x40 MLOAD PUSH2 0xC47 SWAP2 SWAP1 PUSH2 0x1359 JUMP JUMPDEST SWAP1 DUP2 MSTORE PUSH1 0x20 ADD PUSH1 0x40 MLOAD DUP1 SWAP2 SUB SWAP1 KECCAK256 SLOAD SWAP1 POP SWAP3 SWAP2 POP POP JUMP JUMPDEST DUP2 PUSH1 0x2 ADD DUP2 PUSH1 0x40 MLOAD PUSH2 0xC70 SWAP2 SWAP1 PUSH2 0x1359 JUMP JUMPDEST SWAP1 DUP2 MSTORE PUSH1 0x20 ADD PUSH1 0x40 MLOAD DUP1 SWAP2 SUB SWAP1 KECCAK256 SLOAD DUP3 PUSH1 0x1 ADD PUSH1 0x0 DUP3 DUP3 SLOAD PUSH2 0xC92 SWAP2 SWAP1 PUSH2 0x138B JUMP JUMPDEST SWAP3 POP POP DUP2 SWAP1 SSTORE POP PUSH1 0x0 DUP3 PUSH1 0x2 ADD DUP3 PUSH1 0x40 MLOAD PUSH2 0xCAD SWAP2 SWAP1 PUSH2 0x1359 JUMP JUMPDEST SWAP1 DUP2 MSTORE PUSH1 0x40 MLOAD SWAP1 DUP2 SWAP1 SUB PUSH1 0x20 ADD SWAP1 KECCAK256 SSTORE POP POP JUMP JUMPDEST PUSH2 0xCC9 PUSH2 0xE59 JUMP JUMPDEST PUSH2 0x3C8 DUP2 PUSH2 0xEA2 JUMP JUMPDEST PUSH1 0x0 DUP1 DUP3 PUSH1 0x0 ADD MLOAD PUSH2 0xCF6 DUP6 PUSH1 0x0 ADD MLOAD DUP7 PUSH1 0x20 ADD MLOAD DUP7 PUSH1 0x0 ADD MLOAD DUP8 PUSH1 0x20 ADD MLOAD PUSH2 0xEAA JUMP JUMPDEST PUSH2 0xD00 SWAP2 SWAP1 PUSH2 0x145C JUMP JUMPDEST SWAP1 POP JUMPDEST DUP4 MLOAD PUSH1 0x20 DUP6 ADD MLOAD PUSH2 0xD14 SWAP2 SWAP1 PUSH2 0x145C JUMP JUMPDEST DUP2 GT PUSH2 0xD6C JUMPI DUP2 PUSH2 0xD24 DUP2 PUSH2 0x1443 JUMP JUMPDEST SWAP3 POP POP DUP3 PUSH1 0x0 ADD MLOAD PUSH2 0xD5B DUP6 PUSH1 0x20 ADD MLOAD DUP4 PUSH2 0xD3F SWAP2 SWAP1 PUSH2 0x138B JUMP JUMPDEST DUP7 MLOAD PUSH2 0xD4B SWAP2 SWAP1 PUSH2 0x138B JUMP JUMPDEST DUP4 DUP7 PUSH1 0x0 ADD MLOAD DUP8 PUSH1 0x20 ADD MLOAD PUSH2 0xEAA JUMP JUMPDEST PUSH2 0xD65 SWAP2 SWAP1 PUSH2 0x145C JUMP JUMPDEST SWAP1 POP PUSH2 0xD03 JUMP JUMPDEST POP SWAP3 SWAP2 POP POP JUMP JUMPDEST PUSH1 0x40 DUP1 MLOAD DUP1 DUP3 ADD SWAP1 SWAP2 MSTORE PUSH1 0x0 DUP1 DUP3 MSTORE PUSH1 0x20 DUP3 ADD MSTORE PUSH2 0xD6C DUP4 DUP4 DUP4 PUSH2 0xFCC JUMP JUMPDEST PUSH1 0x60 PUSH1 0x0 DUP3 PUSH1 0x0 ADD MLOAD PUSH8 0xFFFFFFFFFFFFFFFF DUP2 GT ISZERO PUSH2 0xDB3 JUMPI PUSH2 0xDB3 PUSH2 0x11ED JUMP JUMPDEST PUSH1 0x40 MLOAD SWAP1 DUP1 DUP3 MSTORE DUP1 PUSH1 0x1F ADD PUSH1 0x1F NOT AND PUSH1 0x20 ADD DUP3 ADD PUSH1 0x40 MSTORE DUP1 ISZERO PUSH2 0xDDD JUMPI PUSH1 0x20 DUP3 ADD DUP2 DUP1 CALLDATASIZE DUP4 CALLDATACOPY ADD SWAP1 POP JUMPDEST POP SWAP1 POP PUSH1 0x0 PUSH1 0x20 DUP3 ADD SWAP1 POP PUSH2 0xD6C DUP2 DUP6 PUSH1 0x20 ADD MLOAD DUP7 PUSH1 0x0 ADD MLOAD PUSH2 0x1062 JUMP JUMPDEST PUSH1 0x0 DUP3 PUSH1 0x0 ADD SLOAD DUP4 PUSH1 0x2 ADD DUP4 PUSH1 0x40 MLOAD PUSH2 0xE14 SWAP2 SWAP1 PUSH2 0x1359 JUMP JUMPDEST SWAP1 DUP2 MSTORE PUSH1 0x20 ADD PUSH1 0x40 MLOAD DUP1 SWAP2 SUB SWAP1 KECCAK256 PUSH1 0x0 DUP3 DUP3 SLOAD PUSH2 0xE31 SWAP2 SWAP1 PUSH2 0x145C JUMP JUMPDEST SWAP1 SWAP2 SSTORE POP POP DUP3 SLOAD PUSH1 0x1 DUP5 ADD DUP1 SLOAD PUSH1 0x0 SWAP1 PUSH2 0xE4C SWAP1 DUP5 SWAP1 PUSH2 0x145C JUMP JUMPDEST SWAP1 SWAP2 SSTORE POP POP SWAP2 SLOAD SWAP3 SWAP2 POP POP JUMP JUMPDEST PUSH32 0xF0C57E16840DF040F15088DC2F81FE391C3923BEC73E23A9662EFC9C229C6A00 SLOAD PUSH1 0x1 PUSH1 0x40 SHL SWAP1 DIV PUSH1 0xFF AND PUSH2 0x457 JUMPI PUSH1 0x40 MLOAD PUSH4 0x1AFCD79F PUSH1 0xE3 SHL DUP2 MSTORE PUSH1 0x4 ADD PUSH1 0x40 MLOAD DUP1 SWAP2 SUB SWAP1 REVERT JUMPDEST PUSH2 0x94E PUSH2 0xE59 JUMP JUMPDEST PUSH1 0x0 DUP4 DUP2 DUP7 DUP6 GT PUSH2 0xFB5 JUMPI PUSH1 0x20 DUP6 GT PUSH2 0xF64 JUMPI PUSH1 0x0 DUP6 ISZERO PUSH2 0xEF6 JUMPI PUSH1 0x1 PUSH2 0xED2 DUP8 PUSH1 0x20 PUSH2 0x138B JUMP JUMPDEST PUSH2 0xEDD SWAP1 PUSH1 0x8 PUSH2 0x146F JUMP JUMPDEST PUSH2 0xEE8 SWAP1 PUSH1 0x2 PUSH2 0x156A JUMP JUMPDEST PUSH2 0xEF2 SWAP2 SWAP1 PUSH2 0x138B JUMP JUMPDEST NOT SWAP1 POP JUMPDEST DUP5 MLOAD DUP2 AND PUSH1 0x0 DUP8 PUSH2 0xF07 DUP12 DUP12 PUSH2 0x145C JUMP JUMPDEST PUSH2 0xF11 SWAP2 SWAP1 PUSH2 0x138B JUMP JUMPDEST DUP6 MLOAD SWAP1 SWAP2 POP DUP4 AND JUMPDEST DUP3 DUP2 EQ PUSH2 0xF56 JUMPI DUP2 DUP7 LT PUSH2 0xF3E JUMPI PUSH2 0xF31 DUP12 DUP12 PUSH2 0x145C JUMP JUMPDEST SWAP7 POP POP POP POP POP POP POP PUSH2 0xFC4 JUMP JUMPDEST DUP6 PUSH2 0xF48 DUP2 PUSH2 0x1443 JUMP JUMPDEST SWAP7 POP POP DUP4 DUP7 MLOAD AND SWAP1 POP PUSH2 0xF19 JUMP JUMPDEST DUP6 SWAP7 POP POP POP POP POP POP POP PUSH2 0xFC4 JUMP JUMPDEST POP DUP4 DUP4 KECCAK256 PUSH1 0x0 SWAP1 JUMPDEST PUSH2 0xF76 DUP7 DUP10 PUSH2 0x138B JUMP JUMPDEST DUP3 GT PUSH2 0xFB3 JUMPI DUP6 DUP4 KECCAK256 DUP1 DUP3 SUB PUSH2 0xF92 JUMPI DUP4 SWAP5 POP POP POP POP POP PUSH2 0xFC4 JUMP JUMPDEST PUSH2 0xF9D PUSH1 0x1 DUP6 PUSH2 0x145C JUMP JUMPDEST SWAP4 POP POP DUP2 DUP1 PUSH2 0xFAB SWAP1 PUSH2 0x1443 JUMP JUMPDEST SWAP3 POP POP PUSH2 0xF6C JUMP JUMPDEST POP JUMPDEST PUSH2 0xFBF DUP8 DUP8 PUSH2 0x145C JUMP JUMPDEST SWAP3 POP POP POP JUMPDEST SWAP5 SWAP4 POP POP POP POP JUMP JUMPDEST PUSH1 0x40 DUP1 MLOAD DUP1 DUP3 ADD SWAP1 SWAP2 MSTORE PUSH1 0x0 DUP1 DUP3 MSTORE PUSH1 0x20 DUP3 ADD MSTORE PUSH1 0x0 PUSH2 0xFFE DUP6 PUSH1 0x0 ADD MLOAD DUP7 PUSH1 0x20 ADD MLOAD DUP7 PUSH1 0x0 ADD MLOAD DUP8 PUSH1 0x20 ADD MLOAD PUSH2 0x10DC JUMP JUMPDEST PUSH1 0x20 DUP1 DUP6 ADD DUP3 SWAP1 MSTORE DUP7 ADD MLOAD SWAP1 SWAP2 POP PUSH2 0x1016 SWAP1 DUP3 PUSH2 0x138B JUMP JUMPDEST DUP6 MLOAD PUSH2 0x1022 SWAP2 SWAP1 PUSH2 0x138B JUMP JUMPDEST DUP4 MSTORE PUSH1 0x20 DUP6 ADD MLOAD DUP2 SUB PUSH2 0x1038 JUMPI PUSH1 0x0 DUP6 MSTORE PUSH2 0x1059 JUMP JUMPDEST DUP4 MLOAD DUP4 MLOAD PUSH2 0x1046 SWAP2 SWAP1 PUSH2 0x145C JUMP JUMPDEST DUP6 MLOAD DUP7 SWAP1 PUSH2 0x1055 SWAP1 DUP4 SWAP1 PUSH2 0x138B JUMP JUMPDEST SWAP1 MSTORE POP JUMPDEST POP SWAP1 SWAP4 SWAP3 POP POP POP JUMP JUMPDEST PUSH1 0x20 DUP2 LT PUSH2 0x109A JUMPI DUP2 MLOAD DUP4 MSTORE PUSH2 0x1079 PUSH1 0x20 DUP5 PUSH2 0x145C JUMP JUMPDEST SWAP3 POP PUSH2 0x1086 PUSH1 0x20 DUP4 PUSH2 0x145C JUMP JUMPDEST SWAP2 POP PUSH2 0x1093 PUSH1 0x20 DUP3 PUSH2 0x138B JUMP JUMPDEST SWAP1 POP PUSH2 0x1062 JUMP JUMPDEST PUSH1 0x0 NOT DUP2 ISZERO PUSH2 0x10C9 JUMPI PUSH1 0x1 PUSH2 0x10B0 DUP4 PUSH1 0x20 PUSH2 0x138B JUMP JUMPDEST PUSH2 0x10BC SWAP1 PUSH2 0x100 PUSH2 0x156A JUMP JUMPDEST PUSH2 0x10C6 SWAP2 SWAP1 PUSH2 0x138B JUMP JUMPDEST SWAP1 POP JUMPDEST SWAP2 MLOAD DUP4 MLOAD DUP4 AND SWAP3 NOT AND SWAP2 SWAP1 SWAP2 OR SWAP1 SWAP2 MSTORE POP JUMP JUMPDEST PUSH1 0x0 DUP1 DUP6 DUP5 GT PUSH2 0x11E3 JUMPI PUSH1 0x20 DUP5 GT PUSH2 0x118F JUMPI PUSH1 0x0 DUP5 ISZERO PUSH2 0x1127 JUMPI PUSH1 0x1 PUSH2 0x1103 DUP7 PUSH1 0x20 PUSH2 0x138B JUMP JUMPDEST PUSH2 0x110E SWAP1 PUSH1 0x8 PUSH2 0x146F JUMP JUMPDEST PUSH2 0x1119 SWAP1 PUSH1 0x2 PUSH2 0x156A JUMP JUMPDEST PUSH2 0x1123 SWAP2 SWAP1 PUSH2 0x138B JUMP JUMPDEST NOT SWAP1 POP JUMPDEST DUP4 MLOAD DUP2 AND DUP6 PUSH2 0x1136 DUP10 DUP10 PUSH2 0x145C JUMP JUMPDEST PUSH2 0x1140 SWAP2 SWAP1 PUSH2 0x138B JUMP JUMPDEST DUP1 MLOAD SWAP1 SWAP4 POP DUP3 AND JUMPDEST DUP2 DUP2 EQ PUSH2 0x117A JUMPI DUP8 DUP5 GT PUSH2 0x1162 JUMPI DUP8 SWAP5 POP POP POP POP POP PUSH2 0xFC4 JUMP JUMPDEST DUP4 PUSH2 0x116C DUP2 PUSH2 0x1576 JUMP JUMPDEST SWAP5 POP POP DUP3 DUP5 MLOAD AND SWAP1 POP PUSH2 0x1148 JUMP JUMPDEST PUSH2 0x1184 DUP8 DUP6 PUSH2 0x145C JUMP JUMPDEST SWAP5 POP POP POP POP POP PUSH2 0xFC4 JUMP JUMPDEST DUP4 DUP4 KECCAK256 PUSH2 0x119C DUP6 DUP9 PUSH2 0x138B JUMP JUMPDEST PUSH2 0x11A6 SWAP1 DUP8 PUSH2 0x145C JUMP JUMPDEST SWAP2 POP JUMPDEST DUP6 DUP3 LT PUSH2 0x11E1 JUMPI DUP5 DUP3 KECCAK256 DUP1 DUP3 SUB PUSH2 0x11CE JUMPI PUSH2 0x11C4 DUP7 DUP5 PUSH2 0x145C JUMP JUMPDEST SWAP4 POP POP POP POP PUSH2 0xFC4 JUMP JUMPDEST PUSH2 0x11D9 PUSH1 0x1 DUP5 PUSH2 0x138B JUMP JUMPDEST SWAP3 POP POP PUSH2 0x11A9 JUMP JUMPDEST POP JUMPDEST POP SWAP3 SWAP5 SWAP4 POP POP POP POP JUMP JUMPDEST PUSH4 0x4E487B71 PUSH1 0xE0 SHL PUSH1 0x0 MSTORE PUSH1 0x41 PUSH1 0x4 MSTORE PUSH1 0x24 PUSH1 0x0 REVERT JUMPDEST PUSH1 0x0 PUSH1 0x20 DUP3 DUP5 SUB SLT ISZERO PUSH2 0x1215 JUMPI PUSH1 0x0 DUP1 REVERT JUMPDEST DUP2 CALLDATALOAD PUSH8 0xFFFFFFFFFFFFFFFF DUP1 DUP3 GT ISZERO PUSH2 0x122D JUMPI PUSH1 0x0 DUP1 REVERT JUMPDEST DUP2 DUP5 ADD SWAP2 POP DUP5 PUSH1 0x1F DUP4 ADD SLT PUSH2 0x1241 JUMPI PUSH1 0x0 DUP1 REVERT JUMPDEST DUP2 CALLDATALOAD DUP2 DUP2 GT ISZERO PUSH2 0x1253 JUMPI PUSH2 0x1253 PUSH2 0x11ED JUMP JUMPDEST PUSH1 0x40 MLOAD PUSH1 0x1F DUP3 ADD PUSH1 0x1F NOT SWAP1 DUP2 AND PUSH1 0x3F ADD AND DUP2 ADD SWAP1 DUP4 DUP3 GT DUP2 DUP4 LT OR ISZERO PUSH2 0x127B JUMPI PUSH2 0x127B PUSH2 0x11ED JUMP JUMPDEST DUP2 PUSH1 0x40 MSTORE DUP3 DUP2 MSTORE DUP8 PUSH1 0x20 DUP5 DUP8 ADD ADD GT ISZERO PUSH2 0x1294 JUMPI PUSH1 0x0 DUP1 REVERT JUMPDEST DUP3 PUSH1 0x20 DUP7 ADD PUSH1 0x20 DUP4 ADD CALLDATACOPY PUSH1 0x0 SWAP3 DUP2 ADD PUSH1 0x20 ADD SWAP3 SWAP1 SWAP3 MSTORE POP SWAP6 SWAP5 POP POP POP POP POP JUMP JUMPDEST DUP1 CALLDATALOAD PUSH1 0x1 PUSH1 0x1 PUSH1 0xA0 SHL SUB DUP2 AND DUP2 EQ PUSH2 0x12CB JUMPI PUSH1 0x0 DUP1 REVERT JUMPDEST SWAP2 SWAP1 POP JUMP JUMPDEST PUSH1 0x0 DUP1 PUSH1 0x40 DUP4 DUP6 SUB SLT ISZERO PUSH2 0x12E3 JUMPI PUSH1 0x0 DUP1 REVERT JUMPDEST PUSH2 0x12EC DUP4 PUSH2 0x12B4 JUMP JUMPDEST SWAP5 PUSH1 0x20 SWAP4 SWAP1 SWAP4 ADD CALLDATALOAD SWAP4 POP POP POP JUMP JUMPDEST PUSH1 0x0 PUSH1 0x20 DUP3 DUP5 SUB SLT ISZERO PUSH2 0x130C JUMPI PUSH1 0x0 DUP1 REVERT JUMPDEST POP CALLDATALOAD SWAP2 SWAP1 POP JUMP JUMPDEST PUSH1 0x0 PUSH1 0x20 DUP3 DUP5 SUB SLT ISZERO PUSH2 0x1325 JUMPI PUSH1 0x0 DUP1 REVERT JUMPDEST PUSH2 0x132E DUP3 PUSH2 0x12B4 JUMP JUMPDEST SWAP4 SWAP3 POP POP POP JUMP JUMPDEST PUSH1 0x0 JUMPDEST DUP4 DUP2 LT ISZERO PUSH2 0x1350 JUMPI DUP2 DUP2 ADD MLOAD DUP4 DUP3 ADD MSTORE PUSH1 0x20 ADD PUSH2 0x1338 JUMP JUMPDEST POP POP PUSH1 0x0 SWAP2 ADD MSTORE JUMP JUMPDEST PUSH1 0x0 DUP3 MLOAD PUSH2 0x136B DUP2 DUP5 PUSH1 0x20 DUP8 ADD PUSH2 0x1335 JUMP JUMPDEST SWAP2 SWAP1 SWAP2 ADD SWAP3 SWAP2 POP POP JUMP JUMPDEST PUSH4 0x4E487B71 PUSH1 0xE0 SHL PUSH1 0x0 MSTORE PUSH1 0x11 PUSH1 0x4 MSTORE PUSH1 0x24 PUSH1 0x0 REVERT JUMPDEST DUP2 DUP2 SUB DUP2 DUP2 GT ISZERO PUSH2 0x940 JUMPI PUSH2 0x940 PUSH2 0x1375 JUMP JUMPDEST PUSH1 0x0 DUP2 MLOAD DUP1 DUP5 MSTORE PUSH2 0x13B6 DUP2 PUSH1 0x20 DUP7 ADD PUSH1 0x20 DUP7 ADD PUSH2 0x1335 JUMP JUMPDEST PUSH1 0x1F ADD PUSH1 0x1F NOT AND SWAP3 SWAP1 SWAP3 ADD PUSH1 0x20 ADD SWAP3 SWAP2 POP POP JUMP JUMPDEST PUSH1 0x60 DUP2 MSTORE PUSH1 0x0 PUSH2 0x13DD PUSH1 0x60 DUP4 ADD DUP7 PUSH2 0x139E JUMP JUMPDEST PUSH1 0x1 PUSH1 0x1 PUSH1 0xA0 SHL SUB SWAP5 SWAP1 SWAP5 AND PUSH1 0x20 DUP4 ADD MSTORE POP PUSH1 0x40 ADD MSTORE SWAP2 SWAP1 POP JUMP JUMPDEST PUSH1 0x20 DUP2 MSTORE PUSH1 0x0 PUSH2 0x132E PUSH1 0x20 DUP4 ADD DUP5 PUSH2 0x139E JUMP JUMPDEST PUSH1 0x80 DUP2 MSTORE PUSH1 0x0 PUSH2 0x141E PUSH1 0x80 DUP4 ADD DUP8 PUSH2 0x139E JUMP JUMPDEST PUSH1 0x1 PUSH1 0x1 PUSH1 0xA0 SHL SUB SWAP6 SWAP1 SWAP6 AND PUSH1 0x20 DUP4 ADD MSTORE POP PUSH1 0x40 DUP2 ADD SWAP3 SWAP1 SWAP3 MSTORE PUSH1 0x60 SWAP1 SWAP2 ADD MSTORE SWAP2 SWAP1 POP JUMP JUMPDEST PUSH1 0x0 PUSH1 0x1 DUP3 ADD PUSH2 0x1455 JUMPI PUSH2 0x1455 PUSH2 0x1375 JUMP JUMPDEST POP PUSH1 0x1 ADD SWAP1 JUMP JUMPDEST DUP1 DUP3 ADD DUP1 DUP3 GT ISZERO PUSH2 0x940 JUMPI PUSH2 0x940 PUSH2 0x1375 JUMP JUMPDEST DUP1 DUP3 MUL DUP2 ISZERO DUP3 DUP3 DIV DUP5 EQ OR PUSH2 0x940 JUMPI PUSH2 0x940 PUSH2 0x1375 JUMP JUMPDEST PUSH1 0x1 DUP2 DUP2 JUMPDEST DUP1 DUP6 GT ISZERO PUSH2 0x14C1 JUMPI DUP2 PUSH1 0x0 NOT DIV DUP3 GT ISZERO PUSH2 0x14A7 JUMPI PUSH2 0x14A7 PUSH2 0x1375 JUMP JUMPDEST DUP1 DUP6 AND ISZERO PUSH2 0x14B4 JUMPI SWAP2 DUP2 MUL SWAP2 JUMPDEST SWAP4 DUP5 SHR SWAP4 SWAP1 DUP1 MUL SWAP1 PUSH2 0x148B JUMP JUMPDEST POP SWAP3 POP SWAP3 SWAP1 POP JUMP JUMPDEST PUSH1 0x0 DUP3 PUSH2 0x14D8 JUMPI POP PUSH1 0x1 PUSH2 0x940 JUMP JUMPDEST DUP2 PUSH2 0x14E5 JUMPI POP PUSH1 0x0 PUSH2 0x940 JUMP JUMPDEST DUP2 PUSH1 0x1 DUP2 EQ PUSH2 0x14FB JUMPI PUSH1 0x2 DUP2 EQ PUSH2 0x1505 JUMPI PUSH2 0x1521 JUMP JUMPDEST PUSH1 0x1 SWAP2 POP POP PUSH2 0x940 JUMP JUMPDEST PUSH1 0xFF DUP5 GT ISZERO PUSH2 0x1516 JUMPI PUSH2 0x1516 PUSH2 0x1375 JUMP JUMPDEST POP POP PUSH1 0x1 DUP3 SHL PUSH2 0x940 JUMP JUMPDEST POP PUSH1 0x20 DUP4 LT PUSH2 0x133 DUP4 LT AND PUSH1 0x4E DUP5 LT PUSH1 0xB DUP5 LT AND OR ISZERO PUSH2 0x1544 JUMPI POP DUP2 DUP2 EXP PUSH2 0x940 JUMP JUMPDEST PUSH2 0x154E DUP4 DUP4 PUSH2 0x1486 JUMP JUMPDEST DUP1 PUSH1 0x0 NOT DIV DUP3 GT ISZERO PUSH2 0x1562 JUMPI PUSH2 0x1562 PUSH2 0x1375 JUMP JUMPDEST MUL SWAP4 SWAP3 POP POP POP JUMP JUMPDEST PUSH1 0x0 PUSH2 0x132E DUP4 DUP4 PUSH2 0x14C9 JUMP JUMPDEST PUSH1 0x0 DUP2 PUSH2 0x1585 JUMPI PUSH2 0x1585 PUSH2 0x1375 JUMP JUMPDEST POP PUSH1 0x0 NOT ADD SWAP1 JUMP INVALID SWAP6 SGT PUSH29 0xBD5B999A2A07F15C64ECB41442A54817DD1810D04F8FF3A7E325FB5100 LOG2 PUSH5 0x6970667358 0x22 SLT KECCAK256 CALLDATACOPY 0x28 0xC6 SWAP6 0x5D 0xF8 0x4E LOG4 SSTORE 0xBF SWAP3 0xE0 0xB5 PUSH3 0xF686BD 0x26 CALLER LOG3 0xE 0x24 CREATE2 0xEE 0xA7 PUSH5 0xE7F7F1AA95 0x5C PUSH5 0x736F6C6343 STOP ADDMOD EQ STOP CALLER "},"methodIdentifiers":{"changeDomainHolderReward(uint256)":"e106f876","changeRegistrationPrice(uint256)":"f5162639","domainHolderReward()":"2bf6bca8","findDomainHolderBy(string)":"67ce3a51","getDomainRewardBalance(string)":"ef01440c","getTotalRewardBalance()":"21707951","initialize(address,uint256)":"cd6dc687","isDomainRegistered(string)":"1c452781","owner()":"8da5cb5b","registerDomain(string)":"a5cad08a","registrationPrice()":"21658658","renounceOwnership()":"715018a6","transferOwnership(address)":"f2fde38b","withdraw()":"3ccfd60b","withdrawRewardFor(string)":"b7a727a2"}},"storageLayout":{"storage":[],"types":null}}}}