{
  "_format": "hh-sol-artifact-1",
  "contractName": "DomainRegistryV2",
  "sourceName": "contracts/DomainRegistryV2.sol",
  "abi": [
    {
      "inputs": [],
      "name": "DomainIsAlreadyRegistered",
      "type": "error"
    },
    {
      "inputs": [],
      "name": "DomainWasNotRegistered",
      "type": "error"
    },
    {
      "inputs": [],
      "name": "InvalidInitialization",
      "type": "error"
    },
    {
      "inputs": [],
      "name": "NotInitializing",
      "type": "error"
    },
    {
      "inputs": [],
      "name": "NothingToWithdraw",
      "type": "error"
    },
    {
      "inputs": [
        {
          "internalType": "address",
          "name": "owner",
          "type": "address"
        }
      ],
      "name": "OwnableInvalidOwner",
      "type": "error"
    },
    {
      "inputs": [
        {
          "internalType": "address",
          "name": "account",
          "type": "address"
        }
      ],
      "name": "OwnableUnauthorizedAccount",
      "type": "error"
    },
    {
      "inputs": [
        {
          "internalType": "string",
          "name": "parentDomainName",
          "type": "string"
        }
      ],
      "name": "ParentDomainNameWasNotFound",
      "type": "error"
    },
    {
      "inputs": [
        {
          "internalType": "string",
          "name": "message",
          "type": "string"
        }
      ],
      "name": "PaymentForRegisteringDomainFailed",
      "type": "error"
    },
    {
      "inputs": [],
      "name": "WithdrawFailed",
      "type": "error"
    },
    {
      "inputs": [
        {
          "internalType": "string",
          "name": "domainName",
          "type": "string"
        }
      ],
      "name": "WithdrawRewardFailed",
      "type": "error"
    },
    {
      "anonymous": false,
      "inputs": [
        {
          "indexed": true,
          "internalType": "string",
          "name": "indexedName",
          "type": "string"
        },
        {
          "indexed": true,
          "internalType": "address",
          "name": "indexedDomainHolder",
          "type": "address"
        },
        {
          "indexed": false,
          "internalType": "string",
          "name": "name",
          "type": "string"
        },
        {
          "indexed": false,
          "internalType": "address",
          "name": "domainHolder",
          "type": "address"
        },
        {
          "indexed": false,
          "internalType": "uint256",
          "name": "createdDate",
          "type": "uint256"
        }
      ],
      "name": "DomainRegistered",
      "type": "event"
    },
    {
      "anonymous": false,
      "inputs": [
        {
          "indexed": false,
          "internalType": "uint64",
          "name": "version",
          "type": "uint64"
        }
      ],
      "name": "Initialized",
      "type": "event"
    },
    {
      "anonymous": false,
      "inputs": [
        {
          "indexed": true,
          "internalType": "address",
          "name": "previousOwner",
          "type": "address"
        },
        {
          "indexed": true,
          "internalType": "address",
          "name": "newOwner",
          "type": "address"
        }
      ],
      "name": "OwnershipTransferred",
      "type": "event"
    },
    {
      "anonymous": false,
      "inputs": [
        {
          "indexed": true,
          "internalType": "string",
          "name": "indexedDomainName",
          "type": "string"
        },
        {
          "indexed": true,
          "internalType": "address",
          "name": "indexedDomainHolder",
          "type": "address"
        },
        {
          "indexed": false,
          "internalType": "string",
          "name": "domainName",
          "type": "string"
        },
        {
          "indexed": false,
          "internalType": "address",
          "name": "domainHolder",
          "type": "address"
        },
        {
          "indexed": false,
          "internalType": "uint256",
          "name": "rewardValue",
          "type": "uint256"
        },
        {
          "indexed": false,
          "internalType": "uint256",
          "name": "rewardBalance",
          "type": "uint256"
        }
      ],
      "name": "RewardApplied",
      "type": "event"
    },
    {
      "anonymous": false,
      "inputs": [
        {
          "indexed": true,
          "internalType": "string",
          "name": "indexedDomainName",
          "type": "string"
        },
        {
          "indexed": true,
          "internalType": "address",
          "name": "indexedDomainHolder",
          "type": "address"
        },
        {
          "indexed": false,
          "internalType": "string",
          "name": "domainName",
          "type": "string"
        },
        {
          "indexed": false,
          "internalType": "address",
          "name": "domainHolder",
          "type": "address"
        },
        {
          "indexed": false,
          "internalType": "uint256",
          "name": "withdrawValue",
          "type": "uint256"
        }
      ],
      "name": "RewardWithdrawed",
      "type": "event"
    },
    {
      "stateMutability": "payable",
      "type": "fallback"
    },
    {
      "inputs": [
        {
          "internalType": "uint256",
          "name": "toValue",
          "type": "uint256"
        }
      ],
      "name": "changeDomainHolderReward",
      "outputs": [],
      "stateMutability": "nonpayable",
      "type": "function"
    },
    {
      "inputs": [
        {
          "internalType": "uint256",
          "name": "toValue",
          "type": "uint256"
        }
      ],
      "name": "changeRegistrationPrice",
      "outputs": [],
      "stateMutability": "nonpayable",
      "type": "function"
    },
    {
      "inputs": [],
      "name": "domainHolderReward",
      "outputs": [
        {
          "internalType": "uint256",
          "name": "",
          "type": "uint256"
        }
      ],
      "stateMutability": "view",
      "type": "function"
    },
    {
      "inputs": [
        {
          "internalType": "string",
          "name": "domainName",
          "type": "string"
        }
      ],
      "name": "findDomainHolderBy",
      "outputs": [
        {
          "internalType": "address",
          "name": "",
          "type": "address"
        }
      ],
      "stateMutability": "view",
      "type": "function"
    },
    {
      "inputs": [
        {
          "internalType": "string",
          "name": "domainName",
          "type": "string"
        }
      ],
      "name": "getDomainRewardBalance",
      "outputs": [
        {
          "internalType": "uint256",
          "name": "",
          "type": "uint256"
        }
      ],
      "stateMutability": "view",
      "type": "function"
    },
    {
      "inputs": [],
      "name": "getTotalRewardBalance",
      "outputs": [
        {
          "internalType": "uint256",
          "name": "",
          "type": "uint256"
        }
      ],
      "stateMutability": "view",
      "type": "function"
    },
    {
      "inputs": [
        {
          "internalType": "address",
          "name": "owner_",
          "type": "address"
        },
        {
          "internalType": "uint256",
          "name": "registrationPrice_",
          "type": "uint256"
        }
      ],
      "name": "initialize",
      "outputs": [],
      "stateMutability": "nonpayable",
      "type": "function"
    },
    {
      "inputs": [
        {
          "internalType": "string",
          "name": "domainName",
          "type": "string"
        }
      ],
      "name": "isDomainRegistered",
      "outputs": [
        {
          "internalType": "bool",
          "name": "",
          "type": "bool"
        }
      ],
      "stateMutability": "view",
      "type": "function"
    },
    {
      "inputs": [],
      "name": "owner",
      "outputs": [
        {
          "internalType": "address",
          "name": "",
          "type": "address"
        }
      ],
      "stateMutability": "view",
      "type": "function"
    },
    {
      "inputs": [
        {
          "internalType": "string",
          "name": "domainName",
          "type": "string"
        }
      ],
      "name": "registerDomain",
      "outputs": [],
      "stateMutability": "payable",
      "type": "function"
    },
    {
      "inputs": [],
      "name": "registrationPrice",
      "outputs": [
        {
          "internalType": "uint256",
          "name": "",
          "type": "uint256"
        }
      ],
      "stateMutability": "view",
      "type": "function"
    },
    {
      "inputs": [],
      "name": "renounceOwnership",
      "outputs": [],
      "stateMutability": "nonpayable",
      "type": "function"
    },
    {
      "inputs": [
        {
          "internalType": "address",
          "name": "newOwner",
          "type": "address"
        }
      ],
      "name": "transferOwnership",
      "outputs": [],
      "stateMutability": "nonpayable",
      "type": "function"
    },
    {
      "inputs": [],
      "name": "withdraw",
      "outputs": [],
      "stateMutability": "nonpayable",
      "type": "function"
    },
    {
      "inputs": [
        {
          "internalType": "string",
          "name": "domainName",
          "type": "string"
        }
      ],
      "name": "withdrawRewardFor",
      "outputs": [],
      "stateMutability": "nonpayable",
      "type": "function"
    },
    {
      "stateMutability": "payable",
      "type": "receive"
    }
  ],
  "bytecode": "0x608060405234801561001057600080fd5b506115e3806100206000396000f3fe6080604052600436106100e05760003560e01c80638da5cb5b11610084578063e106f87611610056578063e106f8761461027c578063ef01440c1461029c578063f2fde38b146102bc578063f5162639146102dc57005b80638da5cb5b14610214578063a5cad08a14610229578063b7a727a21461023c578063cd6dc6871461025c57005b80632bf6bca8116100bd5780632bf6bca81461017e5780633ccfd60b146101b257806367ce3a51146101c7578063715018a6146101ff57005b80631c452781146100e9578063216586581461011e578063217079511461014a57005b366100e757005b005b3480156100f557600080fd5b50610109610104366004611203565b6102fc565b60405190151581526020015b60405180910390f35b34801561012a57600080fd5b5060008051602061158e833981519152545b604051908152602001610115565b34801561015657600080fd5b507f95137cbd5b999a2a07f15c64ecb41442a54817dd1810d04f8ff3a7e325fb51035461013c565b34801561018a57600080fd5b507f95137cbd5b999a2a07f15c64ecb41442a54817dd1810d04f8ff3a7e325fb51025461013c565b3480156101be57600080fd5b506100e7610340565b3480156101d357600080fd5b506101e76101e2366004611203565b6103cb565b6040516001600160a01b039091168152602001610115565b34801561020b57600080fd5b506100e7610445565b34801561022057600080fd5b506101e7610459565b6100e7610237366004611203565b610487565b34801561024857600080fd5b506100e7610257366004611203565b61066f565b34801561026857600080fd5b506100e76102773660046112d0565b6107c6565b34801561028857600080fd5b506100e76102973660046112fa565b6108e8565b3480156102a857600080fd5b5061013c6102b7366004611203565b610914565b3480156102c857600080fd5b506100e76102d7366004611313565b610946565b3480156102e857600080fd5b506100e76102f73660046112fa565b610981565b60008060008051602061158e8339815191526001018360405161031f9190611359565b908152604051908190036020019020546001600160a01b0316141592915050565b61034861099b565b7f95137cbd5b999a2a07f15c64ecb41442a54817dd1810d04f8ff3a7e325fb510354600090610377904761138b565b90508060000361039a57604051630686827b60e51b815260040160405180910390fd5b6103ab6103a5610459565b826109cd565b6103c857604051631d42c86760e21b815260040160405180910390fd5b50565b6000816103d7816102fc565b6103f4576040516334b2814b60e11b815260040160405180910390fd5b6040517f95137cbd5b999a2a07f15c64ecb41442a54817dd1810d04f8ff3a7e325fb510190610424908590611359565b908152604051908190036020019020546001600160a01b0316915050919050565b61044d61099b565b6104576000610a2b565b565b7f9016d09d72d40fdae2fd8ceac6b6234c7706214fd39c1cd1e609a0528c199300546001600160a01b031690565b80610491816102fc565b156104af57604051634669493d60e01b815260040160405180910390fd5b60008051602061158e833981519152805434101561052557604051637597158360e01b815260206004820152602760248201527f4e6f7420656e6f75676820657468657220746f20726567697374657220746865604482015266103237b6b0b4b760c91b60648201526084015b60405180910390fd5b61052f8382610a9c565b3381600101846040516105429190611359565b90815260405190819003602001812080546001600160a01b03939093166001600160a01b031990931692909217909155339061057f908590611359565b60405180910390207fd1f2ec21ca6ca1afd00511d7822f3c5c0885e70a3bf9b880ea7147aba2d4448a8533426040516105ba939291906113ca565b60405180910390a3805434111561066a5780546000906105da903461138b565b90506105e633826109cd565b61066857604051637597158360e01b815260206004820152604660248201527f546865206f7665727061796d656e74207761732064657465637465642c20627560448201527f7420726566756e64696e67207468652065786365737320776173206e6f7420736064820152651d58d8d9595960d21b608482015260a40161051c565b505b505050565b61067761099b565b80610681816102fc565b61069e576040516334b2814b60e11b815260040160405180910390fd5b60405160008051602061158e833981519152906000907f95137cbd5b999a2a07f15c64ecb41442a54817dd1810d04f8ff3a7e325fb5101906106e1908690611359565b908152604051908190036020019020546001600160a01b03169050600061070b6002840186610c33565b90508060000361072e57604051630686827b60e51b815260040160405180910390fd5b61073b6002840186610c5e565b816001600160a01b0316856040516107539190611359565b60405180910390207f239c5848970b687a239320aed3a6f8302235ee4ba445faa864ee610ef3a9af7787858560405161078e939291906113ca565b60405180910390a36107a082826109cd565b6107bf578460405163d15c220d60e01b815260040161051c91906113f8565b5050505050565b7ff0c57e16840df040f15088dc2f81fe391c3923bec73e23a9662efc9c229c6a008054600160401b810460ff16159067ffffffffffffffff1660008115801561080c5750825b905060008267ffffffffffffffff1660011480156108295750303b155b905081158015610837575080155b156108555760405163f92ee8a960e01b815260040160405180910390fd5b845467ffffffffffffffff19166001178555831561087f57845460ff60401b1916600160401b1785555b61088887610cc1565b8560008051602061158e8339815191525583156108df57845460ff60401b19168555604051600181527fc7f505b2f371ae2175ee4913f4499e1f2633a7b5936321eed1cdaeb6115181d29060200160405180910390a15b50505050505050565b6108f061099b565b7f95137cbd5b999a2a07f15c64ecb41442a54817dd1810d04f8ff3a7e325fb510255565b60006109407f95137cbd5b999a2a07f15c64ecb41442a54817dd1810d04f8ff3a7e325fb510283610c33565b92915050565b61094e61099b565b6001600160a01b03811661097857604051631e4fbdf760e01b81526000600482015260240161051c565b6103c881610a2b565b61098961099b565b60008051602061158e83398151915255565b336109a4610459565b6001600160a01b0316146104575760405163118cdaa760e01b815233600482015260240161051c565b600080836001600160a01b03168360405160006040518083038185875af1925050503d8060008114610a1b576040519150601f19603f3d011682016040523d82523d6000602084013e610a20565b606091505b509095945050505050565b7f9016d09d72d40fdae2fd8ceac6b6234c7706214fd39c1cd1e609a0528c19930080546001600160a01b031981166001600160a01b03848116918217845560405192169182907f8be0079c531659141344cd1fd0a4f28419497f9722a3daafe3b4186f6b6457e090600090a3505050565b6000610acf8360408051808201825260008082526020918201528151808301909252825182529182019181019190915290565b60408051808201825260018152601760f91b602080830191825283518085018552600080825290820181905284518086019095529251845283015291925090610b188383610cd2565b90506001811015610b2a575050505050565b604080516020810190915260008082525b828110156108df57610b55610b508686610d73565b610d92565b9150610b60826102fc565b610b7f57816040516378f3e9ef60e11b815260040161051c91906113f8565b6000610b8e6002880184610dfb565b905060008760010184604051610ba49190611359565b908152604051908190036020018120546001600160a01b031691508190610bcc908690611359565b6040519081900390207f09c4a7bd711082ff4ba6869f6acc3fc39f6854a2097d9d1f8b6c23f281a0f6f1868486610c0660028f0184610c33565b604051610c16949392919061140b565b60405180910390a350508080610c2b90611443565b915050610b3b565b60008260020182604051610c479190611359565b908152602001604051809103902054905092915050565b8160020181604051610c709190611359565b908152602001604051809103902054826001016000828254610c92919061138b565b9250508190555060008260020182604051610cad9190611359565b908152604051908190036020019020555050565b610cc9610e59565b6103c881610ea2565b6000808260000151610cf68560000151866020015186600001518760200151610eaa565b610d00919061145c565b90505b83516020850151610d14919061145c565b8111610d6c5781610d2481611443565b9250508260000151610d5b856020015183610d3f919061138b565b8651610d4b919061138b565b8386600001518760200151610eaa565b610d65919061145c565b9050610d03565b5092915050565b6040805180820190915260008082526020820152610d6c838383610fcc565b60606000826000015167ffffffffffffffff811115610db357610db36111ed565b6040519080825280601f01601f191660200182016040528015610ddd576020820181803683370190505b5090506000602082019050610d6c8185602001518660000151611062565b600082600001548360020183604051610e149190611359565b90815260200160405180910390206000828254610e31919061145c565b90915550508254600184018054600090610e4c90849061145c565b9091555050915492915050565b7ff0c57e16840df040f15088dc2f81fe391c3923bec73e23a9662efc9c229c6a0054600160401b900460ff1661045757604051631afcd79f60e31b815260040160405180910390fd5b61094e610e59565b60008381868511610fb55760208511610f645760008515610ef6576001610ed287602061138b565b610edd90600861146f565b610ee890600261156a565b610ef2919061138b565b1990505b84518116600087610f078b8b61145c565b610f11919061138b565b855190915083165b828114610f5657818610610f3e57610f318b8b61145c565b9650505050505050610fc4565b85610f4881611443565b965050838651169050610f19565b859650505050505050610fc4565b508383206000905b610f76868961138b565b8211610fb357858320808203610f925783945050505050610fc4565b610f9d60018561145c565b9350508180610fab90611443565b925050610f6c565b505b610fbf878761145c565b925050505b949350505050565b60408051808201909152600080825260208201526000610ffe85600001518660200151866000015187602001516110dc565b6020808501829052860151909150611016908261138b565b8551611022919061138b565b8352602085015181036110385760008552611059565b83518351611046919061145c565b8551869061105590839061138b565b9052505b50909392505050565b6020811061109a578151835261107960208461145c565b925061108660208361145c565b915061109360208261138b565b9050611062565b60001981156110c95760016110b083602061138b565b6110bc9061010061156a565b6110c6919061138b565b90505b9151835183169219169190911790915250565b6000808584116111e3576020841161118f576000841561112757600161110386602061138b565b61110e90600861146f565b61111990600261156a565b611123919061138b565b1990505b8351811685611136898961145c565b611140919061138b565b805190935082165b81811461117a578784116111625787945050505050610fc4565b8361116c81611576565b945050828451169050611148565b611184878561145c565b945050505050610fc4565b83832061119c858861138b565b6111a6908761145c565b91505b8582106111e1578482208082036111ce576111c4868461145c565b9350505050610fc4565b6111d960018461138b565b9250506111a9565b505b5092949350505050565b634e487b7160e01b600052604160045260246000fd5b60006020828403121561121557600080fd5b813567ffffffffffffffff8082111561122d57600080fd5b818401915084601f83011261124157600080fd5b813581811115611253576112536111ed565b604051601f8201601f19908116603f0116810190838211818310171561127b5761127b6111ed565b8160405282815287602084870101111561129457600080fd5b826020860160208301376000928101602001929092525095945050505050565b80356001600160a01b03811681146112cb57600080fd5b919050565b600080604083850312156112e357600080fd5b6112ec836112b4565b946020939093013593505050565b60006020828403121561130c57600080fd5b5035919050565b60006020828403121561132557600080fd5b61132e826112b4565b9392505050565b60005b83811015611350578181015183820152602001611338565b50506000910152565b6000825161136b818460208701611335565b9190910192915050565b634e487b7160e01b600052601160045260246000fd5b8181038181111561094057610940611375565b600081518084526113b6816020860160208601611335565b601f01601f19169290920160200192915050565b6060815260006113dd606083018661139e565b6001600160a01b039490941660208301525060400152919050565b60208152600061132e602083018461139e565b60808152600061141e608083018761139e565b6001600160a01b03959095166020830152506040810192909252606090910152919050565b60006001820161145557611455611375565b5060010190565b8082018082111561094057610940611375565b808202811582820484141761094057610940611375565b600181815b808511156114c15781600019048211156114a7576114a7611375565b808516156114b457918102915b93841c939080029061148b565b509250929050565b6000826114d857506001610940565b816114e557506000610940565b81600181146114fb576002811461150557611521565b6001915050610940565b60ff84111561151657611516611375565b50506001821b610940565b5060208310610133831016604e8410600b8410161715611544575081810a610940565b61154e8383611486565b806000190482111561156257611562611375565b029392505050565b600061132e83836114c9565b60008161158557611585611375565b50600019019056fe95137cbd5b999a2a07f15c64ecb41442a54817dd1810d04f8ff3a7e325fb5100a26469706673582212203728c6955df84ea455bf92e0b562f686bd2633a30e24f5eea764e7f7f1aa955c64736f6c63430008140033",
  "linkReferences": {},
  "deployedLinkReferences": {}
}